:1000000014C055C154C153C152C151C150C14FC197
:100010004EC14DC14CC14BC14AC149C148C100602C
:10002000006180006100660002B811241FBECFE5A8
:10003000D2E0DEBFCDBFEEE1F0E040E017C0B59109
:10004000A59135912591059107FD0CC0959185915C
:10005000EF01F92FE82F05900D92A217B307D9F7FA
:10006000FE0104C01D92A217B307E1F7EA32F407BC
:0A00700031F703D015C1F894FFCF5B
:10007A00CF93DF9300D000D000D0CDB7DEB7D2D077
:10008A0085E690E09C0140E829833A834B8384E625
:10009A0090E09C0140E82C833D834E8383E690E008
:1000AA003C0130E8832E82E690E06C0140E8E42EC1
:1000BA0081E690E01C0120E8422E69817A818B81D9
:1000CA008FD0809360006C817D818E8189D08093EE
:1000DA006000882DB30184D0809360008E2DB60114
:1000EA007FD080936000842DB1017AD08093600024
:0200FA00E4CF51
:1000FC009B01482F61157105810599F1FB018491D4
:10010C0047FD808186958770682F70E06630710599
:10011C0054F5F901949147FD908194FB222720F925
:10012C0094FF10C0213009F547B321E030E0B9014C
:10013C0002C0660F771F8A95E2F7CB01842B87BB31
:10014C0081E0089547B321E030E0B90102C0660FA9
:10015C00771F8A95E2F7CB018095842387BB81E0DA
:0E016C00089580E0089580E0089580E00895F1
:10017A0061157105810571F1FB01982F849197FD35
:10018A00808186958770282F30E02630310524F546
:10019A00442319F0413081F021C048B321E030E016
:1001AA00B90102C0660F771F8A95E2F7CB018095E5
:1001BA00842388BB81E0089548B321E030E0B90187
:1001CA0002C0660F771F8A95E2F7CB01842B88BBA2
:1001DA0081E0089580E0089580E0089580E0089520
:1001EA00611571058105D1F0FB01982F849197FD66
:1001FA00808186958770282F30E02630310584F477
:10020A0048B321E030E0B90102C0660F771F8A9532
:10021A00E2F7CB01842788BB81E0089580E0089546
:04022A0080E00895D3
:10022E0065E670E080E81BD08093600064E670E0C5
:10023E0080E815D08093600063E670E080E80FD010
:10024E008093600062E670E080E809D080936000E1
:0E025E0061E670E080E803D0809360000895B0
:10026C00CF92DF92EF9261157105810571F06B01F0
:10027C00E82E3EDFF6014491E7FC408145FB442724
:10028C0040F98E2DB60173DF01C081E0EF90DF9055
:04029C00CF90089562
:0E02A000EC0107D005D0CE0105D0CE0104D070
:0202AE00A8CED8
:0202B0000895AF
:0202B2000895AD
:0202B4000895AB
:0202B600DFDE89
:0102B8001431
:0102B9001430
:0102BA00142F
:0102BB001230
:0102BC001031
:00000001FF
