:1000000018C000C3FFC2FEC2FDC2FCC2FBC2FAC2DE
:10001000F9C2F8C2F7C2F6C2F5C2F4C2F3C2006078
:10002000006B00060E006B008180008100830006DB
:10003000190011241FBECFE5D2E0DEBFCDBFEEE137
:10004000F0E040E017C0B591A5913591259105915B
:1000500007FD0CC095918591EF01F92FE82F0590D0
:100060000D92A217B307D9F7FE0104C01D92A21783
:10007000B307E1F7E133F40731F7C2D2B0C2F89425
:02008000FFCFB0
:10008200CF92DF92EF92CF9361157105810509F44A
:1000920099C06B01E82E8BB780628BBF8AB78F7DC8
:1000A2008ABF78948E2DB6016C5F7F4F8F4F21D11E
:1000B20081604E2D96012B5F3F4F4F4FF901949176
:1000C20047FD90819230B9F128F4992351F0913093
:1000D200E9F070C0933009F443C0943009F455C07C
:1000E20069C0F6015E2D72D270937E0060937D002E
:1000F2004E2D96012E5F3F4F4F4FF901542F66D27E
:1001020070937C0060937B0091E055C0F6015E2DF8
:100112005DD270937A00609379004E2D96012E5F26
:100122003F4F4F4FF901542F51D270937800609393
:10013200770091E040C0F6015E2D48D270937600C0
:10014200609375004E2D96012E5F3F4F4F4FF90180
:10015200542F3CD2709374006093730091E02BC0D3
:10016200F6015E2D33D270937200609371004E2DB2
:1001720096012E5F3F4F4F4FF901542F27D27093B4
:10018200700060936F0091E016C0F6015E2D1ED2E2
:1001920070936E0060936D004E2D96012E5F3F4F5F
:1001A2004F4FF901542F12D270936C0060936B0081
:1001B20091E001C090E0C82FC92B8E2DB60157D017
:1001C2008C2B01C080E0CF91EF90DF90CF9008950B
:1001D200CF92DF92EF92611571058105D1F16B012A
:1001E200E82E8BB78F7B8BBF8AB78F7B8ABFAE2DF2
:1001F200C6010496A11DFC018491A7FD8081813076
:1002020051F028F0823059F0833061F00FC085B789
:10021200826085BF20C085B7836085BF1CC085B75B
:1002220085BF19C085B7816085BF15C08E2DB60107
:100232006D5F7F4F8F4F5DD0F6015E2DC7D17093FA
:10024200800060937F00816078949BB790649BBF2D
:100252000AC080E008C08E2DB6016D5F7F4F8F4FC0
:0E02620048D08160E9CFEF90DF90CF900895F3
:10027000611571058105D1F1A82FCB010596A11D4E
:10028000FC018491A7FD80818230C1F028F488238D
:1002900049F0813069F02CC08430E1F0A8F085305D
:1002A000F9F026C08BB78F7D8BBFA89881E00895A9
:1002B0008BB78F7D8BBFA99881E008958BB78F7D19
:1002C0008BBFAA9881E008958BB78F7D8BBFAB98C9
:1002D00081E008958BB78F7D8BBFAC9881E0089546
:1002E0008BB78F7D8BBFAD9881E0089580E0089536
:0402F00080E008950D
:1002F4009B01482F61157105810599F1FB018491DA
:1003040047FD808186958770682F70E0663071059F
:1003140054F5F901949147FD908194FB222720F92B
:1003240094FF10C0213009F547B321E030E0B90152
:1003340002C0660F771F8A95E2F7CB01842B87BB37
:1003440081E0089547B321E030E0B90102C0660FAF
:10035400771F8A95E2F7CB018095842387BB81E0E0
:0E036400089580E0089580E0089580E00895F7
:1003720061157105810571F1FB01982F849197FD3B
:10038200808186958770282F30E02630310524F54C
:10039200442319F0413081F021C048B321E030E01C
:1003A200B90102C0660F771F8A95E2F7CB018095EB
:1003B200842388BB81E0089548B321E030E0B9018D
:1003C20002C0660F771F8A95E2F7CB01842B88BBA8
:1003D20081E0089580E0089580E0089580E0089526
:1003E200CF93DF930F92CDB7DEB76115710581050B
:1003F20041F19B01482FFB01949147FD9081898136
:1004020090FB80F98983F901949147FD908196953B
:10041200969596959E70817F892B80618983F901DB
:10042200949147FD908197FB992790F990FB85F96C
:100432008983BE016F5F7F4F80E841E099DF81E0F1
:0C04420001C080E00F90DF91CF91089581
:10044E00CF93DF930F92CDB7DEB76115710581059E
:10045E0039F19B01482FFB01949147FD90818981D1
:10046E0090FB80F98983F901949147FD90819695CF
:10047E00969596959E70817F892B80618983F9016F
:10048E00949147FD908197FB992790F990FB85F900
:10049E008983BE016F5F7F4F80E85ED081E001C02F
:0A04AE0080E00F90DF91CF910895D8
:1004B800CF93DF930F92CDB7DEB761157105810534
:1004C80039F19B01482FFB01949147FD9081898167
:1004D80090FB80F98983F901949147FD9081969565
:1004E800969596959E70817F892B80618983F90105
:1004F800949147FD908197FB992790F990FB85F996
:100508008983BE016F5F7F4F80E807D081E001C01B
:0A05180080E00F90DF91CF9108956D
:10052200611571058105D1F0FB01982F849197FD2A
:10053200808186958770282F30E02630310584F43B
:1005420048B321E030E0B90102C0660F771F8A95F7
:10055200E2F7CB01842788BB81E0089580E008950B
:0405620080E0089598
:10056600CF92DF92EF9261157105810571F06B01F3
:10057600E82EBDDEF6014491E7FC408145FB4427A9
:1005860040F98E2DB601F2DE01C081E0EF90DF90DA
:04059600CF90089565
:10059A0062E870E080E856DF61E870E080E852DFE8
:1005AA0060E670E080E868DD66E670E080E80CDE10
:0205BA000895A2
:1005BC0062E870E080E87ADF61E870E080E876DF7E
:0205CC00089590
:1005CE0057FD03C0659175910895619171910895DC
:0E05DE00EC0113D011D0CE0111D0CE0110D0FF
:0A05EC0062E870E080E8F7DE089591
:0A05F60061E870E080E8F2DE08958D
:04060000CCDFFFCF7D
:02060400FDCC2B
:02060600089555
:02060800089553
:02060A00089551
:02060C0038DDD7
:06060E00F602FB020402EB
:05061400DE0200000100
:01061900C020
:01061A00B02F
:00000001FF
